:100000000C94CC070C94E9070C94E9070C94033387
:100010000C94E9070C94E9070C94E9070C94E907A0
:100020000C94E9070C94E9070C943F1C0C94FB1BFF
:100030000C94C9290C94E9070C94E9070C94E9077E
:100040000C94E9070C94E9070C94E9070C94E90770
:100050000C94E9070C94181D0C94E9070C94E9071B
:100060000C94E9070C94E9070C94E9070C94E90750
:100070000C94E9070C94E9070C94E9070C94E90740
:100080000C94E9070C94E9070C94E9070C94E90730
:100090000C94E9070C94E9070C94E9070C94E90720
:1000A0000C94E9070C94E9070C94E9070501098011
:1000B000A101850319012AB700150126B700950192
:1000C00075108100C0050C0901A101850419012AE0
:1000D000A002150126A002950175108100C00660DE
:1000E000FF0961A1010962150026FF00952075082E
:1000F00081020963150026FF00952075089102C052
:1001000005010906A101050719E029E715002501E8
:10011000950875018102950175088101050719008F
:1001200029FF150026FF00950675088100050819AE
:1001300001290515002501950575019102950175A7
:10014000039101C000DA0281FFD9F1DB20A4A62EC1
:10015000AF00A0C0D30000A1C8D30000AED580A8D6
:100160001F408D142000FD377A585A000004E6D64F
:10017000B4460200210116000000742FE5A3E0043C
:10018000D601645D003D888986D3DC0AE842C32439
:10019000925842597FBD199EB8FF9AB15C1A1E331E
:1001A0000845639C1174376FBFEF729718248DD088
:1001B0000CE80D1B11A7AC51FF01EF12B1BE189D49
:1001C0008F89629290C7EFA9899669F6BD48E89C2D
:1001D000FD282591F693619AAC4E0D322FA9EE1AA7
:1001E0001F2C7CDEC23B304283C84F752B7DC9601B
:1001F0004F75AD389A3639211FF10F0236B5A3334A
:100200000BCACF08E1235BC86ECC9C27A37AE0061B
:10021000ADA7AF5FC3F56151981E3A1F054A732D14
:1002200028E31D2DFE8D3CD753F95C911139A106B1
:10023000D0885A1FCB29934F07D56EA172F95C72F3
:1002400037D8EDE0965ECC77D1C60D07DCB82C49E7
:10025000A2C1D01DADA0D921CCB85AEA92EDAC2BE9
:100260000209541B9020809E1AFBE134F6A59300EE
:10027000768842FD9311058932151D848379AD4A34
:10028000E59B179F81EF45BAC88B252BAA52C389DE
:10029000A7124E27A579BEB238FFBA009658023190
:1002A000F0C62398C8E2FDC04B2B8F8FD15C8FF630
:1002B000F2B9651EB58977633200E108EA625A0334
:1002C0004C45D0103D280EF4C087A69B79315D4285
:1002D000B23F682E8EB9C35CDBCD10716DEA6B182E
:1002E000836E30D1D398E2DC0000311D75F2CAE391
:1002F0004B8200018003D70900007A00172EB1C499
:1003000067FB020000000004595A000101010101CD
:1003100001010101020202020202020202030303BE
:10032000030303030304040404040404050505058E
:10033000050606060606070707070708080808094E
:100340000909090A0A0A0B0B0B0C0C0C0D0D0D0EFA
:100350000E0E0F0F0F10101111111212131314148F
:10036000151516161717181819191A1A1B1B1C1D04
:100370001D1E1E1F2020212222232424252626275D
:100380002829292A2B2C2D2D2E2F3031323233348F
:1003900035363738393A3B3C3D3E3F404142434495
:1003A00045464748494A4C4D4E4F50515354555677
:1003B00058595A5B5D5E5F616264656668696B6C23
:1003C0006D6F7072737577787A7B7D7E808283859E
:1003D00087888A8C8E8F91939596989A9C9EA0A2DE
:1003E000A3A5A7A9ABADAFB1B3B5B7BABCBEC0C2E8
:1003F000C4C6C9CBCDCFD1D4D6D8DBDDDFE2E4E7AC
:10040000E9EBEEF0F3F5F8FAFDFF00AF00AE000007
:1004100000E000F8C0F8E0C0FC007E180080000298
:1004200080F000C080F8C0E070603C383C1C003FA9
:100430000C0F1F030701C300E08000E080F880C0BC
:10044000F7C76F7B3930008000C000C0C2E00040B9
:100450003830381E181E0F0C0707070303212131FF
:100460003018181C080C0E07060703C303014CCCF8
:10047000C2C24149092B2A6A6E2424049292B1F126
:10048000F1F2E6A4A4040428282828282828636F69
:10049000726E6500209495962020B4B5B62020D4C5
:1004A000D5D62000209D9E9F2020BDBEBF2020DDF0
:1004B000DEDF2000209798992020B7B8B92020D7F8
:1004C000D8D92000209A9B9C2020BABBBC2020DADF
:1004D000DBDC2000202020202000A7A800AFB000F7
:1004E000C600CA00C800A5A600ADAE008788008F70
:1004F0009000C500C900C700CB008586008D8E0026
:10050000ABAC00CFD000C600CA00C800A9AA00B199
:10051000B2008B8C00CDCE00C500C900C700CB0057
:10052000898A00919200202000532000202000435F
:1005300020002020004E20000000001000000000DD
:10054000000000081C08000000000000000002007D
:10055000000000001000000000000000200000006B
:100560000000000000020040E04000000000000029
:10057000040000000080C080C08000000000000077
:10058000E0008000F00000C000000000000000401B
:1005900000000000000001008100C000FE00FC001F
:1005A000FF20FFF00FF000FF00000000100000002F
:1005B00000009000F80000F8FF10FF84FF60FF3695
:1005C000FF0FFF3F005F000580008000C03800EC97
:1005D000F000FB80FFF0FFEFFFE8FF03FF0CFF00E0
:1005E000FF00030000F80080FF20FFD0FFE0FEF8CE
:1005F000FFFCFFFF0FFF013FFF000F0001000300A2
:10060000FE80FE00C0FFC4FBFFFEFFFFFF3FFFFFB9
:1006100007FF033F000FC0000000B800FF40BEF01E
:10062000FFF1FFFEFFFFFFFF1FFF6700EF001F004E
:1006300000070000E000FFF0FF88FFC4FFF8FFFFA5
:10064000FFFFFFFF8F7F0FFF0007FE000700000086
:1006500000F800C03FF8E7FFFFFFFF1FFFFF1F3F4D
:1006600001FF0B00FF000005000000E000F86080C3
:10067000FEE3FCFF1EFFFF23FF09FF20003F0200F7
:10068000000F004000C000FCE0FCF0FFFF7FFCFF1B
:100690000FFF071F00010F000F0081700CF080009A
:1006A00000E4F8E6703FCFFF1FFF48FF0F00070090
:1006B000004360F8F0FE38FE00FC0300C872CFFC77
:1006C00000030F01E01CE003000F00000000000029
:1006D00000F806F900030007FF001012C9F0CFB4BC
:1006E0007F80E01E0140655EE00000F00CF00080BD
:1006F0007E018093FCC000000000000089182C4699
:10070000000721101080091331BFFF00081AF70FEE
:100710000000444534BFB80010F008F41811FC186C
:10072000FB0E10F804F810201809FF0CEA1F2860CF
:1007300030F820C0423321002B0014001A000800BA
:1007400015001700E00004001600070009000A0069
:10075000E1001D001B00060019000500000000005C
:100760000000E30021522C002A00130012000C00AC
:1007700018001C00340033000F000E000D000B00A9
:10078000290038003700360010001100000000007A
:100790000000E600225228002B001E001F0020004F
:1007A00021002200E0000000000000000000000026
:1007B000E100000000000000000000000000000058
:1007C0000000E30001002C002A002700260025007D
:1007D00024002300000000004F0052005100500090
:1007E0000000000000000000000000000000000009
:1007F0000000E600235228002B001E021F022002E8
:1008000021022202E00000000000000000000000C1
:10081000E1000000000000000000000000000000F7
:100820000000E30023522C002A00270226022502A2
:10083000240223023500310030002F002E002D004D
:100840003502310230022F022E022D02000000007C
:100850000000E60001002800007C0000000000000D
:100860000000000020782378257827780000000019
:100870002178247826782878000000000000000005
:100880000000E30001002C00000000000000000058
:100890000000000000000000000000000000000058
:1008A0000000000000000000000000000000000048
:1008B0000000E60001002800A900AA004E004B003D
:1008C000A900AA004E004B00A900AA004E004B0050
:1008D000A900AA004E004B0009025B00030100A022
:1008E000FA090400000103010100092111010001BE
:1008F00022440007058103080001090401000203E6
:1009000000000009211101000122220007058203D5
:100910002000010705030320000109040200010370
:1009200000000009211101000122320007058403A3
:1009300020000112010002000000081D8D3A340061
:1009400001010203011C037600690061006C003A9A
:10095000006600360034006300320062003300633A
:1009600000000024034100750072006F00720061F6
:1009700000200043006F0072006E006500200072CE
:100980000065007600310000001803730070006CF1
:1009900000690074006B0062002E0063006F006D40
:1009A0000000000403090400000000000000000033
:1009B0000000000000000000000000000000000037
:1009C00000000000000000000000007E0F00D4FFC7
:1009D000FFFFC70000007800000000000000002AB0
:1009E0002B280000000000000000000000000000B4
:1009F000000029000000002C1E342021222434266F
:100A000027252E362D3738271E1F20212223242567
:100A1000263333362E37381F0405060708090A0B1C
:100A20000C0D0E0F101112131415161718191A1B8E
:100A30001C1D2F3130232D350405060708090A0B2C
:100A40000C0D0E0F101112131415161718191A1B6E
:100A50001C1D2F3130354C0000000000003E5B4F64
:100A60005B3E003E6B4F6B3E001C3E7C3E1C001804
:100A70003C7E3C18001C577D571C001C5E7F5E1C92
:100A80000000183C180000FFE7C3E7FF000018242F
:100A9000180000FFE7DBE7FF0030483A060E0026AB
:100AA0002979292600407F05050700407F05253F5D
:100AB000005A3CE73C5A007F3E1C1C0800081C1CE6
:100AC0003E7F0014227F2214005F5F005F5F0006FC
:100AD000097F017F00006689956A00606060606040
:100AE0000094A2FFA2940008047E04080010207E57
:100AF00020100008082A1C0800081C2A0808001EEC
:100B000010101010000C1E0C1E0C0030383E383037
:100B100000060E3E0E060000000000000000005F10
:100B2000000000000700070000147F147F14002459
:100B30002A7F2A1200231308646200364956205087
:100B400000000807030000001C22410000004122B1
:100B50001C00002A1C7F1C2A0008083E0808000010
:100B6000807030000008080808080000006060007D
:100B7000002010080402003E5149453E0000427F1B
:100B80004000007249494946002141494D3300184F
:100B900014127F10002745454539003C4A49493128
:100BA00000412111090700364949493600464949A3
:100BB000291E000000140000000040340000000066
:100BC00008142241001414141414000041221408C3
:100BD000000201590906003E415D594E007C121188
:100BE000127C007F49494936003E41414122007F45
:100BF0004141413E007F49494941007F09090901BE
:100C0000003E41415173007F0808087F0000417F8A
:100C10004100002040413F01007F08142241007F35
:100C200040404040007F021C027F007F0408107F8C
:100C3000003E4141413E007F09090906003E415105
:100C4000215E007F091929460026494949320003DF
:100C5000017F0103003F4040403F001F2040201F14
:100C6000003F4038403F00631408146300030478D9
:100C70000403006159494D4300007F414141000296
:100C80000408102000004141417F000402010204D9
:100C9000004040404040000003070800002054543A
:100CA0007840007F284444380038444444280038C1
:100CB0004444287F0038545454180000087E090228
:100CC000001824241C78007F080404780000447D68
:100CD0004000002040403D00007F102844000000FC
:100CE000417F4000007C04780478007C080404788C
:100CF000003844444438007C182424180018242464
:100D0000187C007C0804040800485454542400044F
:100D1000043F4424003C4040207C001C2040201C18
:100D2000003C4030403C004428102844004C909047
:100D3000907C004464544C4400000836410000009C
:100D400000770000000041360800000201020402A2
:100D5000003C2623263C000000000000000000C0EC
:100D6000E0F0F8F81800C0F0FCFEFFFFFFFFFFFF07
:100D7000FF7E00000000F8042252E2424242E252AA
:100D80002222224282020222220204F80000F804F7
:100D90000202824222428202020282422212224243
:100DA000820204F80000F8FCDEAE1EBEBEBE1EAE1F
:100DB000DEDEDEBE7EFEFEDEDEFEFCF80000F8FCBF
:100DC000FEFE7EBEDEBE7EFEFE0000000000008055
:100DD0008040402020101008081010202040408043
:100DE000808080C0C0E0E0F0F0F8F8F0F0E0E0C013
:100DF000C080808080404020201010080810102003
:100E00002040408080808040C060A050B058A850F2
:100E1000B060A040C0808000F8FCFEFFE000FFFF53
:100E2000FFFFFFFF80FFFFFFFFFFFFFFFFFF1F0729
:100E30000100000000001F20444A47424242474A46
:100E400044404040404142444440201F00001F2095
:100E500040414040404040414041414F4848484F58
:100E60004141201F00001F3F7B75787D7D7D787597
:100E70007B7F7F7F7F7E7D7B7B7F3F1F00001F3FCF
:100E80007F7E7F7F7F7F7F7E7F0000000000008865
:100E9000885D5D3E3E7C7CF8F87C7C3E3E5D5D88F6
:100EA0008888885555232347478F8F4747232355E5
:100EB0005588888888D5D5E2E2C4C48888C4C4E24D
:100EC000E2D5D5888888885DD56BB66DD6ADDA6DEC
:100ED000D66BB65DD5888800030F1F3F3F3F3F1F8D
:100EE0001F3F3F7F7F7F3F3F1F3F7F7F7F7F7C781C
:100EF00078381C0F0004F80000F804201F00001FC1
:100F000020FCF80000F8043F1F00001F2004F80038
:100F100000F8FC201F00001F3FFCF80000F8FC3F19
:100F20001F00001F3FFE7EBEDEEEDEBE7EFEFCF832
:100F3000007E7E70777777707E7E3F1F0000000016
:100F400000000000000000000000000000000000A1
:100F50000001010202040408080404020201010065
:100F60000000000101020204040808040402020156
:100F700001000000000101030307070F0F0707032B
:100F8000030101000000000101030205060D0A052E
:100F9000060302010100000011241FBECFEFDAE0BA
:100FA000DEBFCDBF12E0A0E0B1E0E4ECFAE602C0A3
:100FB00005900D92AE3AB107D9F727E0AEEAB2E05C
:100FC00001C01D92AD32B207E1F70E94F0290C94E6
:100FD00027350C940000482F209121059091E804BA
:100FE00057E0291302C080E0089530E0529FF001DD
:100FF000539FF00D1124E751FB4F8181681306C008
:101000008081481303C085818111EECF2F5F3F4F50
:101010002770E7CFE8EDF0E080818E7F808310922B
:10102000E2001092DA001092E100A0EEB0E08C91A4
:1010300081608C9380818F77808319BCA7EDB0E0AD
:101040008C918E7F8C9380818F7E80831092D004D0
:1010500008952091E4003091E50095E6A9012091E2
:10106000EC00822F817020FF06C08091E80080FF95
:1010700006C080E008952091E80022FD1AC080910A
:10108000DE04882389F0853089F08091EB0085FDAE
:101090000FC02091E4003091E50042175307F9F2A8
:1010A0009150E1F684E0089582E0089583E0089588
:1010B00081E008958091E00487FF13C08091E800EB
:1010C00082FF06C08091E8008B778093E80004C01F
:1010D0008091DE048111F2CF08958091DE0488238F
:1010E000D9F38091E80080FFF8CF8091E8008E77F7
:1010F000ECCF982F9093E900242F762F50E089179A
:1011000031F07091EC002091ED005091F00021FD44
:1011100007C09F5F973071F78093E90081E00895E1
:101120003091EB003E7F3093EB003091ED003D7F3E
:101130003093ED003091EB0031603093EB00709311
:10114000EC002093ED005093F0002091EE0027FD7D
:10115000E0CF80E00895B0E0A0E0E1EBF8E00C948F
:101160003D34C8EDD0E088818F7E8883E7EDF0E0E4
:1011700080818160808384E082BF81E08093D0049D
:1011800088818E7F888302EE10E0F8011082109231
:10119000DA0081EEC82ED12CF601108288818F777B
:1011A000888388818068888388818F7D888319BC43
:1011B0001092DE041092DF041092DD041092DC0421
:1011C00090EEE92EF12CF70180818B7F808388815E
:1011D0008160888342E060E080E00E947908F60147
:1011E00080818E7F8083F80180818160808380810F
:1011F00088608083F70180818E7F80838881806111
:101200008883CDB7DEB7E8E00C945934FC018091B7
:10121000E6049091E70486179707A0F06115710521
:1012200029F49091E8009E779093E80090E0611592
:10123000710551F4911108C08091E80082FF34C01B
:1012400080E00895BC01F2CF8091DE048823C1F1D3
:101250008530C1F18091E80083FD30C08091E800C5
:1012600082FDEACF8091E80080FFE1CF8091F3001A
:101270002091F200382F6115710519F028303105E1
:1012800058F091E02830310509F090E02091E80015
:101290002E772093E800CBCF81918093F1006150AD
:1012A00071092F5F3F4FE7CF8091DE04882341F023
:1012B000853041F08091E80083FFBECF81E0089542
:1012C00082E0089583E00895089508958091D304FD
:1012D000089587E797E7909301088093000888E1D5
:1012E0009AE00FB6F894A895809360000FBE909393
:1012F0006000FFCF2FB7F8946091CC047091CD04BB
:101300008091CE049091CF042FBF0895A3E0B0E068
:10131000ECE8F9E00C9443342091C9043091CA04FC
:1013200028173907A1F09093CA048093C904E0916B
:10133000C704F091C804309751F024E029839B83BF
:101340008A830084F185E02DCE01019609952396CC
:10135000E2E00C945F34A3E0B0E0E1EBF9E00C9440
:1013600043342091C5043091C60428173907A1F0F1
:101370009093C6048093C504E091C704F091C8041B
:10138000309751F023E029839B838A830084F18581
:10139000E02DCE01019609952396E2E00C945F348E
:1013A0008091C304882359F0E091C704F091C804E8
:1013B000309729F00190F081E02D0995089580E0A3
:1013C00008954115510511F0FA0109950895FC01A0
:1013D000680F791F8FEF91E32191822728E030E099
:1013E00087FF09C0880F892721503109C9F7E617FF
:1013F000F70791F70895880FF7CFCF93DF932091E8
:101400002B0730912C0725523540A901460F571F55
:101410004130524020F060E072E0621B730B40915B
:10142000230550912405FC01C901620F731FC1E01F
:10143000D0E08617970738F0509324054093230592
:10144000DF91CF9108952491DC01AB5DBA4F3C91BF
:10145000321781F02C939C01A5E036952795AA952B
:10146000E1F7DE0102C0AA0FBB1F2A95E2F79D013A
:101470004A2B532B01963196DCCFEAE1F4E090E061
:1014800080E06AE079E241E359E229E738E27683D5
:1014900065835087478332872187968785870196A2
:1014A0003F968830910599F7089581152CE79207AA
:1014B00041F42091BE043091BF04232B11F490E03D
:1014C00080E00895FA01811101C0FB01099508959A
:1014D0003091C404311123C08B3191051CF14B971D
:1014E000FC01EE0FFF1FDF01A80FB91FAC59BC4F65
:1014F00011963C911197361307C03C91341304C0E8
:1015000012963C91321771F031E030936303E80F8B
:10151000F91FEC59FC4F61834083228303C08B3158
:101520009105F4F20895109263030895EBE5F3E05A
:10153000248130E1231B08F420E0248380915A03A6
:10154000816080935A030895EBE5F3E0248130E154
:10155000230F08F42FEF248380915A038160809336
:101560005A03089590915B03937071F080935C032C
:1015700060935D03413808F040E840935E0380913A
:101580005A03822B80935A030895EBE5F3E04381DD
:1015900020E1421B08F440E0818121E0628190E07B
:1015A0000E94B20A0895EBE5F3E0438120E1420F87
:1015B00008F44FEF818121E0628190E00E94B20A3D
:1015C0000895EBE5F3E0628120E1621B08F460E03E
:1015D000818121E0438190E00E94B20A0895EBE509
:1015E000F3E0628120E1620F08F46FEF818121E076
:1015F000438190E00E94B20A0895EBE5F3E0818117
:1016000021E0438162818850990B0E94B20A0895BB
:10161000EBE5F3E0818190E021E04381628108966F
:101620000E94B20A089580915B03837051F0846038
:1016300080935B0310925C0180915A03862B809308
:101640005A03089580915B0386958695815009F42D
:1016500081E061E00E94130B089561E081E00E9447
:10166000130B08959BE0899F802D1124980F9733C9
:1016700008F096E32091C404222321F09C3128F045
:101680009BE108958B3108F48BE10895FF920F934D
:101690001F93CF93DF93182F062FF42ED0E0C0E0D6
:1016A0002F2D402F612FCE010E94680A2196C6334C
:1016B000D105B1F7CDB7DEB7E5E00C945C3480E03E
:1016C0000895F894E82FE295EF70F0E031A1282F0B
:1016D0002F7081E090E001C0880F2A95EAF7982FDB
:1016E0009095932391A392A1892B82A37894089536
:1016F0000F931F938091C304882329F00E947A09D5
:101700001F910F9108950E947A0900911E03109174
:101710001F032091200330912103600F711F821F4E
:10172000931FEECF90912E0392FF10C041E0282F1F
:101730002471243009F040E031E0282F287128304E
:1017400009F030E0431711F02CE0822793FF10C01E
:1017500041E0282F2471243109F040E031E0282FA6
:101760002871283109F030E0431711F02CE082276E
:1017700030912F0330FF10C051E0282F217121300C
:1017800009F050E041E0282F2871283009F040E0AE
:10179000541711F029E0822731FF10C041E0282FB3
:1017A0002171213109F040E031E0282F28712831E2
:1017B00009F030E0431711F029E0822794FD877E7D
:1017C000089582389105B9F1B0F48133910509F497
:1017D0007DC048F48932910509F46DC08A329105C3
:1017E00009F47BC008958533910509F45FC08933FE
:1017F000910509F10895833E9105D9F138F4803EB1
:10180000910529F1823E910579F10895863E910571
:10181000D9F1873E910509F43EC0843E910541F51A
:1018200020912F0321FF24C080912E0384FD19C035
:1018300087EE90E0089520912E03237009F05AC09E
:1018400020912F0323FF14C089E290E00895209196
:101850002E0320FD38C030912F0330FF09C024FF34
:1018600043C090E080E0089520912E0322FDF7CF41
:10187000089520912E0322FD3AC030912F0330FDB0
:1018800039C024FFF5CFEDCF20912E0323FFF0CFF9
:1018900024FDE7CFCDCF20912E0323FD2EC0309124
:1018A0002F0331FFEECF84EE90E0089520912E03B8
:1018B00025FFDECFC9CF20912E0325FD21C0209129
:1018C0002F0323FFD5CF89E390E0D2CF20912E03C1
:1018D00026FFCECF8AE290E0089520912E0326FFC6
:1018E000C7CF81E390E0089583EE90E0089582EE03
:1018F00090E0089580EE90E0089586EE90E00895DF
:1019000085E390E008951F93CF93DF930E94E10B4E
:10191000EC01C11580E5D807F0F5C11580E4D807C2
:1019200008F0AAC0C03ED10520F5CD3CD10508F095
:1019300090C0C83AD10578F4C53AD10508F081C005
:10194000C130D10519F1209709F1C430D105F0F467
:10195000D0E0C0E01BC0C33CD105D0F7C85AD0E0EE
:10196000CC0FDD1FC758DE4F0990D881C02DD4643D
:101970000DC0C11580E2D80708F0C9C0C11581E0CB
:10198000D80708F068C0C83ED10510F7CE01DF9136
:10199000CF911F910895C03682E5D80718F5C0345D
:1019A00082E5D80708F079C0C03282E5D80708F090
:1019B0006DC0C11582E5D80708F48FC02C2F26957D
:1019C000269580E2289F900111248C2F8370C1E01E
:1019D000D0E002C0CC0FDD1F8A95E2F7C22BD32BDB
:1019E000DD68D4CFC03C82E5D807F8F4C03A82E580
:1019F000D80708F067C0C03882E5D80708F0A8CF3C
:101A00002C2F26952695277080E2289F900111247F
:101A10008C2F8370C1E0D0E002C0CC0FDD1F8A950F
:101A2000E2F7C22BD32BDA68B1CFC03E82E5D807EC
:101A300008F08ECFDC2FCC27CC27DF71C06FD06AA7
:101A4000A5CFC55AD0E0CA58DE4FC881D0E0D064D7
:101A50009DCFD0659BCF8D2F0E94920B182FCE016A
:101A600099270E94E10BC12FD0E0DC2FCC27CC2797
:101A7000DF71C82BD92B8ACFCE0199270E94E10BA9
:101A8000CC27DF70C82BD92BD06A80CFCF71D0E0A4
:101A9000DC2FCC27C16FD06A79CF2C2F26952695C5
:101AA000277080E2289F900111248C2F8370C1E061
:101AB000D0E002C0CC0FDD1F8A95E2F7C22BD32BFA
:101AC000DC6864CF8C2F8F710E94920BC82FD0E0FE
:101AD000DC2FCC27CC27DF7159CF8C2F8F710E9440
:101AE000920B55E0D695C7955A95E1F7CF70D0E0A7
:101AF000DC2FCC27282F30E084FF05C044E0220FE4
:101B0000331F4A95E1F7C22BD32BD0693FCF8D2FDE
:101B10008F710E94920B182FCE0199270E94E10B22
:101B2000C12FD0E0DC2FCC27CC27DF71C82BD92BDD
:101B3000D0622CCF0E94780B08958091210590915E
:101B4000E804981301C008958F5F8770FACFA82F1B
:101B5000A77023E0969587952A95E1F7FC01EE0F93
:101B6000FF1FE80FF91FE60FF71F50E040E080E08D
:101B7000219130E00A2E02C0369527950A94E2F7AB
:101B800021703327042E01C0220F0A94EAF7822B1A
:101B90004F5F5F4F4330510559F70895903FC9F0AB
:101BA000983080F48630A8F4282F30E06BEB72E098
:101BB000A901E6E09E9F400D511D1124CA010E941B
:101BC000A70D08959C5F923020F468EB72E090E0DE
:101BD000F6CF80E00895262F277091E001C0990F7D
:101BE0002A95EAF723E0769567952A95E1F7FB01B8
:101BF000EE0FFF1FE60FF71FE40FF51F50E040E068
:101C0000682F70E08191DF0111979B01042E02C0C3
:101C1000369527950A94E2F72170219528272923E4
:101C200028272C934F5F5F4F4330510559F7089594
:101C3000282F862F903F79F0983070F4263058F492
:101C4000622F70E026E0929F600D711D11244BEB16
:101C500052E00E94EB0D08959C5F9230E0F7622FF6
:101C600070E048EB52E0F5CF809393040895909193
:101C7000930421E030E0F90101C0EE0F8A95EAF704
:101C8000D90102C0AA0FBB1F6A95E2F7EA2B01C077
:101C9000220F4A95EAF7892F8E23E81305C0292BD6
:101CA000822F0E94340E089520952923F9CF21E038
:101CB00030E001C0220F8A95EAF7209580919304C5
:101CC00082230E94340E089521E030E001C0220FEB
:101CD0008A95EAF780919304822B0E94340E08952E
:101CE000809392040895982F92959F7011F0892FF8
:101CF00094E0282F2695269511F09E5F822F8695D9
:101D000009F09F5F892F08959C013A9521153F4165
:101D100050F5FC01EE27F170BC0166277270AC0132
:101D2000442754709C012227387094FF0EC080E134
:101D3000EF2B09F480E0672B09F08062452B09F056
:101D40008064232B89F08068089581E0EF2B09F4EB
:101D500080E0672B09F08260452B09F08460232B1B
:101D600019F08860089580E00895CF93DF93C091C3
:101D70002B07D0912C078A30C1F420912205CE0187
:101D800085529540622F70E00E941F34281B822FDD
:101D900066E00E946A34C82FC15018F4DF91CF91D9
:101DA000089580E20E94B50EF7CF8D30E9F4C55258
:101DB000D54020912205622F70E0CE010E941F3491
:101DC000281B822F9E01280F311D2115324018F04B
:101DD00080E0D0E0C0E0C80FD11DCB5DDA4FD093DA
:101DE0002C07C0932B07DACF96E0FE01A5E2B7E0FF
:101DF00001900D929A95E1F7803E08F458C086E074
:101E0000FE0111928A95E9F7C0912B07D0912C071A
:101E100046E050E0BE0185E297E00E94A0349E01BA
:101E200025523540892B41F1C90145E096958795AA
:101E30004A95E1F741E050E0BA0102C0660F771F12
:101E40008A95E2F7CB016091230570912405862BDA
:101E5000972BB9016B5F7F4FE5E076956795EA9523
:101E6000E1F702C0440F551F6A95E2F7842B952BCA
:101E700090932405809323052A5F3F4F40912205CC
:101E8000642F70E0C9010E941F34481B463010F4D3
:101E9000240F311D211572E0370710F030E020E0EB
:101EA0002B5D3A4F30932C0720932B0777CFF6E02A
:101EB0008F9FB0011124695A754F46E050E0CE0162
:101EC0000E949734A1CFCF93DF93EC01FE01849160
:101ED000811103C0DF91CF9108950E94B50E219624
:101EE000F5CF8091D1049091C004892B8093B002EA
:101EF00048E050E064ED72E080EB92E00E94A03494
:101F0000892BA9F088E0E0EBF2E0A4EDB2E00190CB
:101F10000D928A95E1F7E091C704F091C8043097DB
:101F200031F00280F381E02D80EB92E00995089575
:101F3000E2EBF2E086E0DF011D928A95E9F790E09E
:101F400080E00E94AB0990E080E00E948609109238
:101F5000C0040E94710F0895AAE2B0E0E2EBFFE036
:101F60000C94423480EE94E02091F100DC012D933A
:101F7000CD01B4E0883E9B07B9F78091E10483303E
:101F800009F472C0B8F4813009F449C0823009F410
:101F9000B5C08091E80083FF98C28091E0049091E1
:101FA000E1049A3008F091C2E92FF0E0E75DFA4CC5
:101FB0000C948A348A3009F490C08B3009F471C0D3
:101FC000893039F78091E004813219F78091E40477
:101FD0009091E504009711F00297D9F68091E800FE
:101FE000877F8093E8008091E80082FF38C090915D
:101FF000F3008091F200029731F48091F10081307A
:1020000011F0863021F48091F1008093D304809107
:10201000E8008B778093E8000E945A08BACF80913D
:10202000E004813A09F0B5CF8091E800877F809382
:10203000E8008091E4049091E504892B61F468E064
:1020400084ED94E070E00E9406098091E8008B77AF
:102050008093E8009ECF60E090E080E0F3CF809135
:10206000DE048111C0CF95CF8091E004813A09F060
:1020700090CF8091E4049091E504892B09F089CFF9
:102080008091E800877F8093E8008091E80080FFDE
:10209000FCCF809164018093F1008091E8008E77FD
:1020A000B9CF8091E004813209F073CF8091E404CC
:1020B0009091E504892B09F06CCF8091E800877F2F
:1020C0008093E8000E945A088091E20480936401A2
:1020D0001092D1040E94980F5CCF8091E00481326D
:1020E00009F057CF8091E800877F8093E8000E9435
:1020F0005A088091E3048093D2044BCF8091E0048E
:10210000813A09F046CF8091E800877F8093E8000C
:102110008091E80080FFFCCF8091D204BCCF803852
:1021200099F0823809F0D1C18091E4048F70873032
:1021300008F0CBC18093E9008091EB0085FB8827F4
:1021400080F91092E90006C08091DC049091DD04D2
:10215000911182609091E800977F9093E8008093BE
:10216000F1001092F1008091E8008E77AAC18823D7
:1021700009F498C1823009F0A8C18091E20481116C
:102180009BC18091E4048F702FEF280F263008F058
:102190009CC18093E9002091EB0020FF8DC193301A
:1021A00031F48091EB0080628093EB0085C19091C7
:1021B000EB0090619093EB0021E030E001C0220F32
:1021C0008A95EAF72093EA001092EA008091EB00EA
:1021D0008860EACF811179C11091E2041F77809164
:1021E000E3008078812B8093E3008091E800877F73
:1021F0008093E8000E945A088091E80080FFFCCF9D
:102200008091E30080688093E30082E0111183E015
:102210008093DE045AC18058823008F056C1209164
:10222000E2043091E3042C3DE3E03E07A1F583E0B6
:102230008A838AE289834FB7F894DE01139620E0FF
:102240003EE051E2E32FF0E050935700E49120FF8D
:1022500003C0E295EF703F5FEF708E2F90E0EA30A1
:10226000C0F0C7968D939D932F5F243159F74FBFD0
:102270008091E800877F8093E8006AE270E0CE01F9
:1022800001960E9406098091E8008B778093E80010
:102290001CC1C096E7CF8091E4049091E504432FE0
:1022A00055274330510509F44AC078F541305105AE
:1022B00009F485C08BE590E0E8EDF8E04230510587
:1022C00009F003C12091E800277F2093E8002091C6
:1022D000E6043091E7048217930708F49C0140E07C
:1022E0002115310509F070C041116EC08091E800E0
:1022F00082FDC9CF8091DE04882329F2853019F24E
:102300008091E80083FFF2CFBECF4132510509F43E
:1023100047C04232510509F0D8C08330910508F01A
:10232000D4C0FC01EE0FFF1FEE55FD4F0190F08170
:10233000E02D81569D4FDC018C9190E01DC033272C
:1023400021303105E9F02115310579F022303105D0
:10235000F9F02330310509F0B8C0E5E4F9E0E49183
:102360008E2F90E0E5E4F9E007C0E3EAF9E0E491BC
:102370008E2F90E0E3EAF9E0009709F4A6C0A2CF1F
:10238000E9E8F9E0E4918E2F90E0E9E8F9E0F4CF94
:10239000E3E6F9E0E4918E2F90E0E3E6F9E0ECCF9C
:1023A0008330910508F091C0880F991FFC01E85512
:1023B000FD4F0190F081E02D89E090E083CF82E134
:1023C00090E0E3E3F9E07ECF8091DE04882309F416
:1023D0005ACF853009F457CF8091E80083FD53CF61
:1023E0008091E80082FD82CF8091E80080FF78CF65
:1023F0009091F3008091F2002115310519F0883099
:10240000910550F041E0089709F040E08091E80024
:102410008E778093E80064CF44914093F100319629
:10242000215031090196E8CF803809F04EC08091E3
:10243000E800877F8093E8008091DF048093F100BB
:1024400092CE811142C01091E2041230F0F58091D9
:10245000E800877F8093E8001093DF040E945A0809
:10246000112311F084E005C08091E30087FDFACFCD
:1024700081E08093DE0442E061EC81E00E94790813
:1024800042E261EC84E00E94790842E261EC82E081
:102490000E94790842E260EC83E00E947908809112
:1024A000DE0413C08091E204813079F481E093303E
:1024B00009F080E08093DD041092E9008091E8004B
:1024C000877F8093E8000E945A088091E80083FF8C
:1024D0000AC08091E800877F8093E8008091EB003C
:1024E00080628093EB00AA96E3E00C945E34CF9375
:1024F000DF93EC0149855A856D857E850E94E1094F
:102500008B81982F90958091C00489238093C0047B
:102510000E94710F85E0FE0111928A95E9F7DF9123
:10252000CF910895CF93DF93EC018C8181FD11C091
:1025300082608C838091C0049B81892B8093C0042E
:102540000E94710F4F8158856D857E85CE010E9456
:10255000E1091092C2041092C1048C8180FD03C075
:10256000CE010E947712DF91CF910895882341F028
:1025700080959091C00489238093C0040E94710FBC
:102580000895882339F09091C004982B9093C0044B
:102590000E94710F0895882341F080959091D10495
:1025A00089238093D1040E94710F0895882339F004
:1025B0009091D104982B9093D1040E94710F0895AB
:1025C0008823C1F19CEF980F913A78F4E2EBF2E0A6
:1025D0009191891303C0DF0111971C9242E0E83BFF
:1025E000F407B1F70E94710F089590E2980F9830A8
:1025F00088F4877021E030E0A90102C0440F551F24
:102600008A95E2F7CA0180959091D104892380933D
:10261000D104E8CF9BE5980F933028F490E080E058
:102620000E94AB090895885A8B3120F490E080E035
:102630000E94860908950F931F93CF93C82F882374
:1026400049F18CEF8C0F813AB8F502EB12E088EB80
:1026500092E0F8012191C21709F122E0E83BF2076C
:10266000C9F7EFEF80E0D8019D918D01C91781F086
:10267000EF3F19F4911101C0E82F8F5F863099F771
:10268000EF3F31F00E2E000CFF0BE055FD4FC283E3
:102690000E94710FCF911F910F910895E2EBF2E02C
:1026A0002191C21303C0DF0111971C928E179F075F
:1026B000B9F70E94710FD5CF80E28C0F883068F493
:1026C000C77021E030E001C0220FCA95EAF780917F
:1026D000D104822B8093D104DBCFEBE5EC0FE33008
:1026E00040F4F0E0EA58FE4F808190E00E94AB0990
:1026F000D1CFC85ACB3170F6EC2FF0E0EE0FFF1FB0
:10270000E758FE4F808191810E948609C3CF0F93C5
:102710001F93CF93DF938B01EA019091DE049430F5
:1027200061F58093E9008FEF9091E800815095FD6D
:1027300006C095ED9A95F1F700008111F5CF8091D3
:10274000E80085FF1AC00E942908811111C08091FC
:10275000E80085FD06C08091E8008E778093E80050
:10276000F2CFF80181918F018093F100219779F7E1
:102770008091E8008E778093E800DF91CF911F91E0
:102780000F91089543E050E0BC0184E00E9487135C
:102790000895CF93DF93EC0148E050E0BC0181E065
:1027A0000E94871388E0FE01A4EDB4E001900D9231
:1027B0008A95E1F7DF91CF91089580916303882393
:1027C00041F1539A3BB1377F2BB128604FB7F89452
:1027D00084E693E0FC015191CF0168E02BB9000041
:1027E00000C057FF3BB9550F000000C000C000C03B
:1027F0003BB900C06A9591F7F4E086309F0751F726
:102800004FBF8FE594E00197F1F700C000001092F0
:1028100063030895B0E0A0E0E0E1F4E10C943B3400
:102820007C015B016A0180911D0301E010E08A30A8
:1028300010F40AE010E0C1E0D0E0B501C701F601F4
:102840000995811104C021960C171D072CF4CDB7F2
:10285000DEB7EAE00C945734CC9F9001CD9F300D49
:10286000300D112490E080E045E34A95F1F7000037
:10287000019682179307C1F7E0CF1F93CF93DF93A1
:10288000182FEB010E941B13209739F4812F0E940F
:10289000E012DF91CF911F9108958FE99FE001979A
:1028A000F1F700C000002197EFCFB0E0A0E0EBE52A
:1028B000F4E10C943B34EC018AE0A82E2881222319
:1028C00009F49FC0213009F03FC099818A8191307D
:1028D00051F4229670E060E0893311F460E570E015
:1028E0000E943D1405C0923029F422960E941B13C9
:1028F0002196E4CF933021F422960E94E012F8CF83
:10290000943011F02196F4CF229630E020E0AE0111
:102910004F5F5F4F8053990B8A30910550F02150E3
:10292000310930F38FE99FE00197F1F700C0000013
:10293000F6CFA29EB001A39E700D11249C01260F1C
:10294000371F8981EA01E3CFE22FF0E0E952F64F29
:10295000B490822F86958695869590E0FC01E95388
:10296000F64FE4902770F12C022E02C0F594E79404
:102970000A94E2F731E0E322FF24FC01E954F64F28
:10298000C490D12C022E02C0D594C7940A94E2F7C9
:1029900031E0C322DD24FC01E955F64F049110E03B
:1029A00002C0159507952A95E2F701701127E114E9
:1029B000F10419F081EE0E941B13C114D10419F027
:1029C00086EE0E941B1389E370E060E0B81202C03B
:1029D00060E570E08B2D0E943D14C114D10419F004
:1029E00086EE0E94E012E114F10419F081EE0E94DB
:1029F000E0120115110509F47BCF70E060E08CE274
:102A00006FCFCDB7DEB7EAE00C9457341092D10403
:102A10000E94980F2FEF84E39CE02150804090406B
:102A2000E1F700C0000088E19AE00FB6F894A8959D
:102A3000809360000FBE90936000FFCFCF93C82FAC
:102A40006FEF811169E085E290E00E94EB346FEF57
:102A5000C11160E886E290E00E94EB346FEFC11193
:102A60006EE087E290E00E94EB34CF910895CF931F
:102A7000DF93C9E1D2E060E0CE010E94EB34219601
:102A8000C11584E0D807B9F7DF91CF9108950F936E
:102A90001F93CF93DF93142F022F843020F56230E1
:102AA00010F598E0899FE001112484E0689FB0014F
:102AB0001124C60FD71FC755DE4F82E090E0442394
:102AC00011F090E080E0632F8C0F9D1F0E94EB348B
:102AD00083E090E0112311F081E090E0602F8C0FF3
:102AE0009D1F0E94EB34DF91CF911F910F910895AC
:102AF0001F93CF93DF93122F8430E0F46830D0F42B
:102B00004630C0F4C42FD0E0CC0FDD1F9CE0699F9D
:102B1000C00DD11D112490E6899FC00DD11D112437
:102B2000632FCE0189960E94EB34612FCE018A96E5
:102B30000E94EB34DF91CF911F91089585E290E0E0
:102B40000E94CD34893089F486E290E00E94CD3431
:102B5000803859F487E290E00E94CD3491E08E30C5
:102B600009F090E0892F8170089580E0FCCFFF92FA
:102B70000F931F93CF93DF93F42E843070F5623060
:102B800060F528E0829F8001112434E0639FB0014A
:102B90001124060F171F07551E4F82E090E04423B3
:102BA00011F090E080E0800F911F0E94CD34C82F7B
:102BB000D0E0DC2FCC2783E090E0FF2011F081E013
:102BC00090E0800F911F0E94CD349E01282BC901F7
:102BD000CDB7DEB7E5E00C945C3490E080E0F8CF50
:102BE0000F931F93CF93DF93843030F5683020F537
:102BF000463010F5C42FD0E0CC0FDD1F2CE0629FD3
:102C0000C00DD11D112430E6839FC00DD11D1124AC
:102C1000CE0189960E94CD34082F10E0102F002796
:102C2000CE018A960E94CD349801282BC901DF91EC
:102C3000CF911F910F91089590E080E0F8CF2091FF
:102C4000500330915103232BD9F4703F39F4603F86
:102C5000B9F480910604909107040895783048F4FF
:102C6000663070F4843060F4462F672F0E94F015B0
:102C700008957D3F41F4623018F441E0843050F013
:102C800090E080E008957C3FD9F76230C8F7843047
:102C9000B8F740E00E94B7150895CF92DF92FF92F7
:102CA0000F931F93CF93DF936C0100919304809156
:102CB0009204082BC3E0D0E010E0FC2EC8010C2EDB
:102CC00002C0959587950A94E2F780FD0CC0219784
:102CD000A0F7F12C8F2DDF91CF911F910F91FF90D5
:102CE000DF90CF900895B6018C2F0E941F160E948E
:102CF000830C019761F3EECFCF93DF93EC010E9439
:102D00004D16BE010E941F160E94830CDF91CF91C9
:102D10000895FC0124812223C1F0808191810E94C9
:102D20007C1692959F70963091F058F4925F9F7048
:102D3000923058F4803F19F030F4883E30F481E04E
:102D400008959A5FF4CF843FD1F380E00895883EE0
:102D5000B0F3813FD1F7F3CFA6E0B0E0E2EBF6E1CC
:102D60000C94423426E0FC01DE01119601900D9294
:102D70002A95E1F7FC01258189819A81222399F026
:102D8000662389F00E944D16182F682F89819A8139
:102D90000E94180E69817A81812F0E941F16269643
:102DA000E3E00C945E340E94CE0D182FF3CFAAE01E
:102DB000B0E0EDEDF6E10C943634A090BE04B09096
:102DC000BF0481E090E09093BF048093BE0488EB41
:102DD000E82E88E0F82E98E3C92E97E0D92E10E06F
:102DE000460100E015C0F30125913491452D602F77
:102DF000812F0E94781582E0680E711C539486E042
:102E00005812F1CF8CE0880E911C0F5F083019F03A
:102E10003401512CE8CFF7012591349141E060E075
:102E2000812F0E944715F70132962591349140E099
:102E300060E0812F0E944715F70134962591349167
:102E400041E061E0812F0E944715F70136962591F8
:102E5000349140E061E0812F0E94471588E0E80E40
:102E6000F11C1F5F80E6C80ED11C143009F0B8CFEA
:102E70001A8219821C821B821E821D8218861F8262
:102E800088EC90E09A87898709EC11E04AE050E0ED
:102E9000B801CE0101960E940F35065F1F4F093120
:102EA00082E0180799F7B092BF04A092BE042A9658
:102EB000EFE00C94523480E00E941E1560E088E23E
:102EC00090E00E94EB340E94D7160E94371581E0F3
:102ED0000E941E1508959B01883070F49AE0899F26
:102EE000B001112467537E4F4AE050E0C9010E94AF
:102EF000BD3490E080E008958FEF9FEF0895AAE041
:102F0000B0E0E5E8F7E10C9443349C0137552F3FDE
:102F1000310509F068F4BE016F5F7F4F0E946B17A7
:102F2000892B31F489859A852A96E2E00C945F34E6
:102F300088EC90E0F9CFB0E0A0E0E1EAF7E10C9492
:102F40003D346C017B0164E670E088E70E947D31CE
:102F50008C01E601EC0CFD1C17FD0BC0FE018491F9
:102F600064E670E00E94E9318C012196CE15DF0500
:102F700099F70E945F3281E00115110509F080E0A8
:102F8000CDB7DEB7E8E00C9459348091BA04909143
:102F9000BD04911103C091E089270895882369F049
:102FA00062E070E08CE094E00E949B17811103C006
:102FB0008091BA0408951092BA048091BA04EBCFBC
:102FC000CF93C091BA048091BD048823D1F00E94B0
:102FD0007A09605A75418F4F9F4F6093B604709382
:102FE000B7048093B8049093B904C11108C062E09B
:102FF00070E08AE094E00E949B17811105C0C091A7
:10300000BA048C2FCF91089581E08093BA04F7CF52
:1030100048E050E068E170E08BE593E00E94DB342B
:1030200010925A030895B0E0A0E0E9E1F8E10C94B1
:1030300039340E94780B609352037093530380934A
:1030400054039093550330915B03D32FD37019F041
:10305000D32FD695D69520915C012130D9F022232B
:1030600059F0223009F40AC1233009F411C1CDB757
:10307000DEB7ECE00C94553410925901609356037E
:1030800070935703809358039093590381E0809382
:103090005C01EDCF9091580181E0D9130BC0832FD3
:1030A00083702091570130E091E08217130609F4F4
:1030B00090E0892F817080935B01809160039091F3
:1030C0005A01981739F080935A0140E060E080E09F
:1030D0000E94460BDD2321F0D13061F090E02BC03F
:1030E00090915B01992339F140E060E080E00E941B
:1030F000460BF4CF809159010E94320B982E092F74
:10310000C0905C03D0905D03E0915E03F0E0E65F69
:10311000FC4FD11025C0F4901F2DCF2DC92CD12CE0
:10312000C01608F492C08091C40491E0882309F489
:103130009EC00B3198F68091590121E0280F209311
:103140005901911198C092E090935C0190915B01BC
:10315000911191C0DD2309F499C00E94320B87CFF1
:10316000ED2CF12CC4918C2EEC2FF0E026E0C29EC9
:10317000C00111242FEF30E0B9010E941F348C2DC3
:1031800090E0880F991FA5E5A69FA001A79F500D6D
:103190001124841B950BC82ECC0CC80EC9018E19A6
:1031A0009F098E9FA0018F9F500D9E9F500D11244F
:1031B000152FDC9CC0011124892F9927D901A81B48
:1031C000B90BCD018E9FD0018F9FB00D9E9FB00D8A
:1031D00011245901AC18B108AE9C6001AF9CD00C11
:1031E000BE9CD00C1124CD2CDD242C193D092E9F22
:1031F000C0012F9F900D3E9F900D1124F92E62303B
:103200007105A1F050F46115710509F487CF6130A3
:10321000710581F0F52E1B2F81CF6430710569F0A7
:1032200080F06630710509F479CFF4CFFC2EC52FFC
:10323000192F74CFFC2ECB2F71CFF52E1C2FC92F39
:103240006DCFC52F182DFB2E69CFF601EF59FD4F1D
:10325000808190915A01892331F0212F4F2D6C2FBD
:10326000C6010E94680ABFEFCB1ADB0A59CF0633AA
:1032700008F461CF33CFD11170CFF9CED09358017C
:10328000832F8370809357010E94DD1383E0FFCE6C
:1032900080915A0381110E940818C0905603D09063
:1032A0005703E0905803F09059038091C30488239A
:1032B000C1F02FB7F8946091CC047091CD04809147
:1032C000CE049091CF042FBF6C197D098E099F0900
:1032D000603171058105910508F4C9CE10925C0139
:1032E000C6CE0E94780BF0CFEBE5F3E085E080835B
:1032F0008091650190916601A0916701818392831D
:10330000A3838FE784838FEF85830E940818089535
:1033100090E080E00E94D534863E9E4F19F40E94D2
:103320009E15089580E00895A4E0B0E0EAE9F9E18F
:103330000C94423440911103509112036091130395
:10334000709114032FB7F8948091CC049091CD0420
:10335000A091CE04B091CF042FBF841B950BA60B78
:10336000B70B11E084369105A105B10570F10E94FB
:10337000780B6E5F7F4F8F4F9F4F69837A838B836C
:103380009C838091290190912A0188509D4F409102
:10339000280150E04530510510F044E050E0BE01F6
:1033A0006F5F7F4F0E94AD3485E090E00E94A933AB
:1033B000182F882351F00E947A09609311037093AB
:1033C00012038093130390931403812F2496E3E058
:1033D0000C945E344F925F926F927F928F929F9285
:1033E000AF92BF92EF92FF920F931F93CF93DF9311
:1033F0007B01FB0140805180628073809FB7F8940D
:103400008090CC049090CD04A090CE04B090CF04D6
:103410009FBF84189508A608B708F4E68F16910494
:10342000A104B10418F4C1E0442329F1C82F880F86
:10343000DD0BFE0183E0EE0FFF1F8A95E1F7E05000
:10344000FF4F8181928188509D4F408150E0041749
:10345000150708F4A801B9010E94AD34CE010E94FD
:10346000A933C82F882339F00E947A09F7016083B5
:103470007183828393838C2FDF91CF911F910F9162
:10348000FF90EF90BF90AF909F908F907F906F9044
:103490005F904F900895A1E0B0E0E1E5FAE10C946F
:1034A00041348091BA0489832091100390E041E077
:1034B0002817190609F440E001E010E09E012F5F93
:1034C0003F4F69E173E087E00E94EA192196E4E04A
:1034D0000C945D34A9E0B0E0E0E7FAE10C944134EB
:1034E00088E0EBE5F3E0DE01119601900D928A95FC
:1034F000E1F7198649E050E067E073E0CE010196FC
:103500000E94A03441E0892B09F440E009E010E07A
:103510009E012F5F3F4F65E173E086E00E94EA194C
:103520002996E4E00C945D340F931F93CF93DF93BF
:10353000EC0144E050E06DEF72E00E94A03441E005
:10354000892B09F440E004E010E09E0160EF72E096
:1035500082E00E94EA19DF91CF911F910F910895A7
:103560004F925F927F928F929F92AF92BF92CF9233
:10357000DF92EF92FF920F931F93CF93DF930F92FF
:10358000CDB7DEB7C62E4A015901482E880F55081F
:10359000C2010E94A933782E882309F480C0C20199
:1035A00033E0880F991F3A95E1F7FC01E050FF4F97
:1035B000438150E04115510511F041E050E0805049
:1035C0009F4FFC016481758168507D4FCE0101964B
:1035D0000E94AD34F40140815181628173812FB723
:1035E000F8948091CC049091CD04A091CE04B09138
:1035F000CF042FBF841B950BA60BB70B8436910508
:10360000A105B10540F4B701C8010E94E7099981FD
:10361000891709F444C00C2C000CDD08C6010E9477
:10362000A933782E811113C0712C872D0F90DF9153
:10363000CF911F910F91FF90EF90DF90CF90BF90AF
:10364000AF909F908F907F905F904F900895C601AC
:1036500023E0880F991F2A95E1F7FC01E050FF4F06
:10366000438150E0E416F50608F4A70180509F4F0F
:10367000FC016481758168507D4FC5010E94AD34A5
:10368000B701C8010E94E70999818913CDCF0E9433
:103690007A09F4016083718382839383C6CFA70183
:1036A000B801C5010E94AD34C0CFA4E0B0E0EBE5A5
:1036B000FBE10C943D346B0184E0E82EF12C09EF22
:1036C00012E09E012F5F3F4F4CEE52E061E080E040
:1036D0000E94B01A882361F049815A816B817C81F4
:1036E0004093E8025093E9026093EA027093EB0280
:1036F0004091E8025091E9026091EA027091EB0278
:10370000F60140835183628373832496E8E00C942E
:103710005934A8E0B0E0EFE8FBE10C94433466EEE6
:103720007EEF90E080E00E94093560E082E090E06A
:103730000E94EB3481E08093920461E083E090E0AA
:103740000E94EB3460E074E184E090E00E9409356F
:1037500060E086E090E00E94EB346FEF87E090E05D
:103760000E94EB3440E050E0BA0188E090E00E9413
:10377000FD3460E084E290E00E94EB3460E087E199
:1037800090E00E94EB3460E08CE090E00E94EB342B
:1037900060E08DE090E00E94EB3419821A821B8277
:1037A0001C821D821E821F82188648E050E068E15C
:1037B00070E0CE0101960E94DB3440E050E0BA0197
:1037C00080E290E00E94FD3480E00E941E150E947D
:1037D0005B1740E050E0BA018FE090E00E94FD34BA
:1037E00040E050E0BA0183E190E00E94FD34289669
:1037F000E2E00C945F341F920F920FB60F921124E7
:103800002F933F934F935F936F937F938F939F93E8
:10381000AF93BF93CF93DF93EF93FF93D091E900E2
:10382000DF708091EC00C82FC17080FDC0E810925D
:10383000E9008091F000877F8093F00078940E94E7
:10384000AC0F1092E9008091F00088608093F00046
:10385000CD2BCF70C093E900FF91EF91DF91CF9115
:10386000BF91AF919F918F917F916F915F914F9198
:103870003F912F910F900FBE0F901F9018951F92A0
:103880000F920FB60F9211242F933F934F935F9394
:103890006F937F938F939F93AF93BF93EF93FF9318
:1038A0008091E10082FF09C08091E20082FF05C0A3
:1038B0008091E1008B7F8093E1008091DA0080FFAE
:1038C00024C08091D80080FF20C08091DA008E7FD4
:1038D0008093DA008091D90080FF9DC080E189BD8E
:1038E00082E189BD09B400FEFDCF81E08093DE0452
:1038F0008091D004811109C00E940A080E94AB087F
:103900008091E20084608093E2008091E10080FF7A
:1039100017C08091E20080FF13C08091E2008E7F8B
:103920008093E2008091E20080618093E2008091C8
:10393000D80080628093D80019BC85E08093DE04B3
:103940008091E10084FF2BC08091E20084FF27C0BA
:1039500080E189BD82E189BD89B5982F917080FF92
:10396000FBCF8091D8008F7D8093D8008091E100BB
:103970008F7E8093E1008091E2008F7E8093E20051
:103980008091E20081608093E2008091DF048823CF
:1039900009F447C084E08093DE048091DE048091C6
:1039A000E10083FF27C08091E20083FF23C0809164
:1039B000E100877F8093E10082E08093DE04109233
:1039C000DF048091E1008E7F8093E1008091E2002E
:1039D0008E7F8093E2008091E20080618093E2001C
:1039E00042E060E080E00E9479088091F000886009
:1039F0008093F000FF91EF91BF91AF919F918F91D4
:103A00007F916F915F914F913F912F910F900FBEDA
:103A10000F901F90189519BC1092DE041092D004DC
:103A200074CF8091E30087FD93E09093DE04B5CFDF
:103A300078941F921FB61F9211248F939F93AF9378
:103A4000BF938091CC049091CD04A091CE04B0910D
:103A5000CF040196A11DB11D8093CC049093CD0499
:103A6000A093CE04B093CF04BF91AF919F918F915B
:103A70001F901FBE1F9018959C014FB7F89480911E
:103A8000CC049091CD04A091CE04B091CF044FBF4F
:103A9000821B930B08952FB7F8948091CC049091DA
:103AA000CD04A091CE04B091CF042FBF08952F92E2
:103AB0003F925F926F927F928F929F92AF92BF924E
:103AC000CF92DF92EF92FF920F931F93CF93DF93EA
:103AD0008091BD04882309F422C18091BB04909198
:103AE000BC040E943C1DC29708F4FAC00E944B1D02
:103AF0009093BC048093BB04C091220585E295E0BD
:103B000090932C0780932B078091C304882309F49A
:103B10001DC160E870E08EE094E00E94FD0924E0A1
:103B2000C29FC0011124811562E0960714F090E055
:103B300080E08B5D9A4F90932C0780932B078EE843
:103B400094E00E94630F84ED94E00E94630F9091D3
:103B5000930480919204892B0E94730E8230B1F1FC
:103B60008330B9F18130C1F584EC94E00E94630F99
:103B700084ED94E00E94630FC091D104DC2FD878CB
:103B8000C474DD2361F18DEF94E00E94630F86EF32
:103B900094E0CC2361F188EF94E00E94630F8FEEF4
:103BA00094E0C11102C08CEE94E00E94630FDD230B
:103BB00021F189EE94E00E94630F84EE94E00E946C
:103BC000630FC11124C08AED94E023C084EB94E01C
:103BD000CDCF84EA94E0CACF84E994E0C7CF8AEFDE
:103BE00094E00E94630FC11105C082EF94E00E942F
:103BF000630FD9CF84EF94E0D0CF86EE94E00E949B
:103C0000630FCC2371F182EE94E00E94630F8DED7F
:103C100094E00E94630FC091D104DC2FD171C27275
:103C2000DD2321F183E295E00E94630F8CE195E0B2
:103C3000CC2321F18EE195E00E94630F85E195E0B0
:103C40000E94630FDD2311F18FE095E00E94630F66
:103C50008AE095E00E94630FC11123C080E095E0E7
:103C600022C080EE94E00E94630FADCF80E295E029
:103C70000E94630FC11107C088E195E00E94630FA5
:103C800082E195E0DDCF8AE195E0D6CF8CE095E04A
:103C90000E94630FCC2309F454C088E095E00E9491
:103CA000630F83E095E00E94630F0E94D009C82F44
:103CB00082E395E0C0FF02C085E395E00E94630FB8
:103CC0008CE295E0C1FF02C08FE295E00E94630F95
:103CD00086E295E0C2FF02C089E295E00E94630F90
:103CE0008091230590912405892BB9F58091BA0420
:103CF0008823A9F00E947A090091B6041091B704B4
:103D00002091B8043091B904601B710B820B930BA6
:103D10006F3F7F4F8F4F9F4710F40E94C517DF9171
:103D2000CF911F910F91FF90EF90DF90CF90BF90B8
:103D3000AF909F908F907F906F905F903F902F906B
:103D4000089586E095E00E94630F88CF60E072E0FE
:103D500088E395E00E94FD09C3CF8091BD048823CC
:103D600029F28091B5048111C1CF0E94E017209102
:103D70002305309124052115310509F4B7CF80E0E2
:103D800041E050E0082F10E01A01082E02C0220C7A
:103D9000331C0A94E2F7B10162237323672B11F4F9
:103DA0008F5FF0CF9091B40490FF95C0880F880F7B
:103DB000880F80935F0110926201895F8093600198
:103DC00083E08093630124E630E047E050E06DE556
:103DD00071E088E70E941732892B09F087CFA8018C
:103DE00025E0440F551F2A95E1F78091B40480FF28
:103DF00084C0E4E9F4E080E2DF011D928A95E9F7EE
:103E0000ABE9B2E007E912E08FE9C82E82E0D82ED4
:103E100097E0592E772473948D91E80129918E01B2
:103E2000240F352F311D2B5D3A4FE82FF0E0EC5673
:103E3000FB4F90E080E0652C681A872C082E01C0AB
:103E4000880C0A94EAF77901A12CE701B9907E0168
:103E5000B820662D6A196770962E062E000C770B17
:103E6000DB2D01C0DD0F9A94EAF771956195710918
:103E70006770772701C0B6946A95EAF7BD2A60811A
:103E8000962E9B289082A39468E0A612DECF01961E
:103E900031968830910579F6CA16DB0609F0BCCF59
:103EA00004E610E020E230E044E954E060E488E712
:103EB0000E943832892B09F019CFE101C095D095C5
:103EC0008091230590912405C823D923D0932405FC
:103ED000C09323050BCF8295880F807680935F0176
:103EE0009801369527953695279520936201815E36
:103EF000809360012093630166CF4B5D5A4F04E6C7
:103F000010E020E230E0D2CFACE0B0E0EAE8FFE140
:103F10000C9438348E010F5F1F4F88E0D8011D923A
:103F20008A95E9F786E4C82E81E0D82EF12CE12CA1
:103F3000AA24A394B12C26E4822E21E0922EF6012D
:103F400081916F018F3F09F442C0F894E82FE29508
:103F5000EF70F0E021A18F70A50102C0440F551F42
:103F60008A95E2F7CA01922F982B91A392A180958E
:103F7000892382A3789400C0E0E4F1E0712C31E061
:103F800021912F3F09F4B9C0A22FA295AF70B0E0E4
:103F900090968C9190E02F7002C0959587952A9508
:103FA000E2F780FDAAC0832F782A330F8E169F0672
:103FB00039F7F601319780818F3F11F00E94610B34
:103FC00050EA5A95F1F7F801EE0DFF1D70828FEF60
:103FD000E81AF80A94E0E916F10409F0B0CF48E0D5
:103FE00050E0B80184E293E00E94A034009741F0D1
:103FF00028E0F801A4E2B3E001900D922A95E1F7E0
:1040000000912D0310E0085B1C4F892B09F477C049
:1040100081E08093E0020E944B1D9093DF02809329
:10402000DE02F12CE090C304EE2009F4C2C0198630
:104030001A861B861C8680911D038A3008F083C077
:1040400045E55BE1BE01675F7F4FC8010E940A142E
:10405000882309F49DC044E95AE1BE01675F7F4FA0
:10406000C8010E940A14882309F492C048EE57E25E
:10407000BE01675F7F4FC8010E940A14882309F4BC
:1040800087C044E959E1BE01675F7F4FC8010E94C4
:104090000A14882309F47CC04AE65AE1BE01675F2E
:1040A0007F4FC8010E940A14882309F471C04BE4B1
:1040B0005AE1BE01675F7F4FC8010E940A1488233E
:1040C00009F466C010921D0380912C0390E044E037
:1040D00050E0BE01675F7F4F885B9C4F0E94A03419
:1040E00021E02093E702892B09F044C0E12C8E2DBA
:1040F0008F292C96EDE00C94543480E055CFF0904D
:10410000E002FF2009F48DCF8091DE029091DF0262
:104110000E943C1D059708F484CF44E050E064E21F
:1041200073E0C8010E94A034892B59F084E0E4E2D6
:10413000F3E0D80101900D928A95E1F71092E00228
:1041400071CFF12CFBCF8091E1029091E2020E94AD
:104150003C1D843F914008F073CF8091E702882393
:1041600029F2FE01399684E0DF011D928A95E9F774
:104170001092E702E0912C03F0E0E85BFC4F8985A8
:104180009A85AB85BC8580839183A283B383AFCFAF
:1041900080911D038F3F31F08F5F80931D038A3024
:1041A00008F492CF0E944B1D9093E2028093E102AB
:1041B000D4CFC0902C03D12CF601E85BFC4F6F01EB
:1041C00084E0F801A9EFB2E001900D928A95E1F741
:1041D00064E070E089EF92E00E94E7098093F802C2
:1041E00084E0EDEFF2E0D60101900D928A95E1F7BF
:1041F0004091400350E060913F0370E0655C7C4F6C
:10420000CE0109960E94AD3489858093020361E056
:1042100070E0CE0109960E94E70980930103809027
:10422000030390900403A0900503B09006038091CF
:10423000E3029091E402A091E502B091E6028816B3
:104240009906AA06BB06B1F08092E3029092E402BE
:10425000A092E502B092E6020E947A09861A970AB5
:10426000A80AB90A80921E0390921F03A09220030D
:10427000B092210388E0E7E0F3E0ABE5B3E0019022
:104280000D928A95E1F780911003882319F00E941E
:10429000E0172DCF0E94C5172ACFA4E0B0E0E3E5D8
:1042A000F1E20C943C347C01DC0114968C9188235F
:1042B00009F4B4C161E0C7010E94AC168C01F7019A
:1042C0008581882309F18091C1049091C2040097EF
:1042D000D9F008171907C1F0FFE08F9FC001112422
:1042E000FC01E25EFB4F208124602083865E9B4FB1
:1042F000DC010D931C930E9492121092C00461E0A5
:10430000C7010E94AC168C01F7018581882309F44E
:10431000B1C0980137572038310508F0ABC0F02EF6
:10432000FFE0F01708F47AC18FEF93E00E94CD34DC
:10433000811174C109E112E0F11036C019821A82AC
:104340001B821C82BB24BA9478014FEFE41AF40A52
:10435000C8010E94CD3489831A82882309F45EC182
:10436000813009F081C0680152E0C50ED11CC7013F
:104370000E94CD34E82E8A83882309F44FC1C601F8
:104380000E94CD34F82E8FEF8E0D8330D8F4680163
:1043900083E0C80ED11CFB82FF2021F0CE010196E4
:1043A0000E9455148601D0CF011524E0120709F4AC
:1043B00035C1C8010E94CD34811101C0FA940F5F4C
:1043C0001F4FBACF8BEF8E0D833030F5C8010396A7
:1043D000FB826C01FF2031F36801A4E0CA0ED11CFE
:1043E0000E94CD348C838823E9F28B819C818130BB
:1043F000BFEF9B0710F0982F8827E6E0EE1631F00C
:10440000F7E0EF1631F00E94FF28CCCF0E94C728BA
:10441000C9CF0E944128C6CF24E0E212C3CF680171
:1044200044E0C40ED11CC80103960E94CD34FF2085
:1044300009F4F4C0882309F4F1C08150990BB89EA7
:104440009001B99E300D1124AF2DA150BB0BCD01B1
:10445000820F931F019708F4A5CFEFE9FFE0319792
:10446000F1F700C00000F6CFCE0101960E9455146E
:10447000670198CF680127E5D21A81117BC04FEF01
:10448000C416D10411F008F07BC060E174E08C2DFB
:104490000E946B17892B21F58FE08C9DF0018D9D7B
:1044A000F00D1124E65EFB4F8281813009F049C096
:1044B0008091100490911104892B91F08091120445
:1044C00090911304892B61F080911404909115044C
:1044D0002091160430911704822B932B892BC9F15C
:1044E000AFE00A9FF0011124AF01465E5B4F6A0105
:1044F000D70115968C91E25EFB4F908180FB90F97D
:104500009083811150C0D6011B964D915C911C97F0
:104510001D966D917C91C6010E94E109F60184818E
:1045200081FF2EC0C6010E9477128091C104909134
:10453000C2040817190721F51092C2041092C10491
:104540001FC0823069F68091140490911504892B64
:1045500039F22FE02C9DC0012D9D900D1124FC01FE
:10456000E25EFB4F20812E7F2083865E9B4F0E9460
:104570009212B6CF5FEFC516D10409F008F4B0CFA0
:10458000D70115969C91911146C28091D1048272F7
:10459000F801E052F847E531F10508F07CC0ED5C28
:1045A000FA4C0C948A340E944B1D90933A038093EA
:1045B0003903D60112968C9112978F5F12968C93C5
:1045C00012978091C0049091D104892B13968C93FB
:1045D000139715964D915C9116971D966D917C9150
:1045E000C6010E94E109F601848181FF07C090E0C5
:1045F00080E09093C1048093C204C2CF902F812F9A
:10460000F8CF80915B0391E0892780935B03109240
:104610005C0180915A03816080935A032496E9E0FB
:104620000C94583442E25BE06DE27BE00E94620A47
:10463000F5CF4DE25BE062E27BE0F8CF4DEF5AE070
:1046400068E07BE0F3CF48E05BE06DEF7AE0EECF2F
:1046500041EE5AE06FEE7AE0E9CF4FEE5AE061EEBC
:104660007AE0E4CF45EC5AE063ED7AE0DFCF43ED4A
:104670005AE065EC7AE0DACF46E95AE064EA7AE09B
:10468000D5CF44EA5AE066E97AE0D0CF61E081E034
:104690000E94130BC3CF0737BCE71B07A9F10837EC
:1046A000ECE71E07A9F1D7010D911C91992309F49C
:1046B00054C0C8010E944D16D82E682FC8010E9410
:1046C000180EB8018D2D0E941F160E94830C182F02
:1046D000B82EF7012581368132953F70892F82955A
:1046E0008F70C82ED12C8C3008F06FC0F601E85BBB
:1046F000FA4C0C948A3481E00E94640E43E062E03C
:1047000081E00E94370E8ACF81E00E94570EF6CFDB
:1047100082E0FBCF0130FCE71F07E9F003302CE714
:10472000120799F001151C4709F0BDCF1092D10472
:104730000E94980F5FEF84E39CE0515080409040CE
:10474000E1F700C000000E9469096FEF7FEF90E081
:1047500080E00E9409350E940615C8010E94CE0D16
:10476000D82EAFCF092F0F70907F11F00295007FE8
:10477000812F2223C9F0002369F090E2910F983035
:1047800010F011110BC08091D104082B0093D104BB
:104790000E94710F812F0E941B1317C08091C004CB
:1047A000082B0093C004F4CF0E94E012002369F0AC
:1047B0000095105E183010F0B11015C08091D10432
:1047C00008230093D1040E94710F88E0C81AD10811
:1047D00094E0C916D10410F40E94D00960E0C7012A
:1047E0000E94AC161BCF8091C00408230093C00424
:1047F000EACF892F8F70907F903211F08295807F61
:10480000F1E0BF120CC0222329F03630F0F60E94EE
:10481000D612DBCF3530C8F60E94CB12D6CF22237A
:1048200019F03323A1F3B6CF3323B1F3193309F0D1
:10483000EBC02FEF47EE53E0215040405040E1F7EE
:1048400000C00000E1C0892F86958695837061F0D5
:10485000813009F0BACF812F9370211102C080E01E
:1048600090E00E948609B1CF812F9370211102C080
:1048700080E090E00E94AB09A8CF892F8370A1F55A
:104880002111A3CF812F829586958770880F880F7D
:10489000412F4F70082E01C0440F0A94EAF7212FD0
:1048A000207114FF07C02FE030E001C0220F8A956D
:1048B000EAF72095969596959370923081F0822F25
:1048C000842B933030F480919204913029F0242B82
:1048D00082230E94700E79CF842B822BFACF242B57
:1048E000809192048227F5CF8695222311F0892F9B
:1048F0008170882309F469CF812F8295869587700E
:10490000880F880F412F4F70082E01C0440F0A9462
:10491000EAF7212F207114FF07C02FE030E001C01B
:10492000220F8A95EAF72095969596959370923086
:1049300081F0822F842B933030F480919304913056
:1049400029F0242B82230E94340E3FCF842B822B0C
:10495000FACF242B809193048227F5CF092F0F7073
:10496000222329F0802F0E94640E812F50CF812FA7
:104970000E94CB12802F0E94570E27CF812FA1EFCC
:104980001A1789F1A11750F0B0EF1B17B9F02223C5
:10499000B1F13111FFCE892F8F7129C0E2EF1E17BF
:1049A00049F1F3EF1F13F3CF80E0222361F29F71EF
:1049B00081E001C0880F9A95EAF7C5CF222379F0EC
:1049C000353008F002CF292F2F7181E090E001C02F
:1049D000880F2A95EAF7909193048927B4CF36304F
:1049E00008F0F3CEF0CF892F8F71222321F20E949D
:1049F000640EEBCE892F8F712223C9F3BCCF3323F2
:104A000039F0893309F415CF812F0E94E012DDCEF1
:104A1000892F8F71B0CF0737BCE71B0709F46BCE26
:104A20000837ECE71E0709F075CE82E065CEB0E0EE
:104A3000A0E0EDE1F5E20C943E348091D302807F5A
:104A400009F051C08091D202882309F44CC0E09152
:104A5000210587E0D82E8091E8048E1709F443C021
:104A60000E2F10E0ED9DF0011124E751FB4F8481E2
:104A70008823F1F1D09EE001D19ED00D1124FE01DA
:104A8000E751FB4F91818091CE02981331C0908104
:104A90008091CD0298132CC08581811129C0E280BC
:104AA000F3808091CF029091D002E81AF90A60E079
:104AB0008DEC92E00E94AC160E947F17E816F90672
:104AC000B8F48091D3028F7080618093D302C1517A
:104AD000DB4F88818F70806188838DEC92E00E942B
:104AE0004D210E949D0DCDB7DEB7E7E00C945A34FE
:104AF000F8013196E770AFCFA4E1B0E0E2E8F5E26B
:104B00000C9436348C0186E0F801DE011F9601908A
:104B10000D928A95E1F7F801F480E5808DEC882EFE
:104B200082E0982E8091D10281112AC0F11003C039
:104B3000FF24F3941CC0EE20F9F0C8010E948916EE
:104B4000F82E8823C9F087E0F801ADECB2E00190BF
:104B50000D928A95E1F78091D102813031F48091F4
:104B6000CD029091CE020E947C160E9417258F2DB7
:104B70006496EFE00C945234C8010E944D21D8CFC6
:104B8000C280D380B090D2028091CF029091D002A7
:104B90003601681A790ABB2009F4F9C05080A18057
:104BA00060E08DEC92E00E94AC160E947F176816C0
:104BB000790608F0A5C0FF2009F4BACF8091D3028E
:104BC000382F307F2091CE02F8019181311158C0E9
:104BD000FE2C291314C02091CD02908129130FC0FF
:104BE000E11047C08F7080618093D3028DEC92E01A
:104BF0000E944D218091D302F8018683B8CFE11045
:104C000038C06A2D852D0E94EB076A2D852D0E94E4
:104C1000EB07E82E8111ABCF5F86A88A8F85988934
:104C20000E947C16292F22952F70243058F49F70F3
:104C3000223088F0992399F0F8019681907F79F4D9
:104C4000FE2C95CF2A5F2F70223068F0C8010E9499
:104C50004D21EB2CF5CF992311F0882389F3805E49
:104C6000883070F3F3CF803F58F3815F833070F763
:104C7000E7CF8091D30281608093D302F12C77CF6C
:104C8000291315C02091CD029081291310C0E11085
:104C90000EC08683C8010E944D2187E0F801ADEC6B
:104CA000B2E001900D928A95E1F7FB2C60CFC8012C
:104CB0000E948916882309F45FCFEE2009F45CCFA7
:104CC0008091D302803288F02091CD023091CE02C3
:104CD00039872887DB86CA869091D1029C871D86FA
:104CE0008E87CE0108960E944D2187E0F801ADEC39
:104CF000B2E001900D928A95E1F70E94172518CF36
:104D00008091D302982F907F51F48DEC92E00E9415
:104D10004D2187E0F40111928A95E9F7AFCFFF208A
:104D200009F406CF2091CE02F8019181291311C018
:104D30002091CD02908129130CC0E1100AC0868316
:104D4000C8010E944D2187E0F40111928A95E9F78C
:104D5000ACCFC8010E948916882309F40DCFEE203C
:104D600009F40ACF8091D302803208F4BECF20919B
:104D7000CD023091CE023A832983DC82CB8290919E
:104D8000D1029D831E828F83CE010196ACCF60E05D
:104D90008DEC92E00E94AC160E947F17681679068F
:104DA00008F0B7CFFF2009F4C3CEFE2CEE2009F4A3
:104DB000E3CE9091CE02F801818198132DC090919D
:104DC000CD028081981328C08091CF029091D002AB
:104DD000C81AD90AF8ECCF16D104A8F49091D302DE
:104DE00090FD11C0907F79F08091D302F801868305
:104DF000903F31F0982F907F905F8F70892B868342
:104E0000C8010E944D2187E0F801ADECB2E00190AD
:104E10000D928A95E1F7ABCEC8010E9489168111E7
:104E200064CF8091D30281608093D302C8010E9435
:104E30004D219DCEABE1B0E0E0E2F7E20C944234CC
:104E40004E8B5F8B688F798F8A8F9B8F9111109219
:104E5000C0041D8A86E0FE017696DE011F96019051
:104E60000D928A95E1F78B89882329F061E0CE01C4
:104E70000F960E94AC1687E0FE013F96DE01189661
:104E800001900D928A95E1F7CE0108960E947C254B
:104E900081112AC087E0FE013896DE01119601904B
:104EA0000D928A95E1F78C858823F1F02091E80432
:104EB00030E0C90101968770992740912105481774
:104EC0001906E9F097E0929FD001939FB00D11244D
:104ED000A751BB4FFE01319601900D929A95E1F7D3
:104EE0008093E8040E949D0D17E080912105909128
:104EF000E804891314C06B96E3E00C945E341092BE
:104F0000D1040E94980F1092E8041092210587E0C6
:104F1000EDECF2E0DF011D928A95E9F7E5CF819F84
:104F2000C001112487519B4F0E947C25882319F3CF
:104F30008091210590E00196877099278093210543
:104F4000D4CFACE0B0E0E7EAF7E20C944134182F9C
:104F5000062F662359F10E944B1D1F832DEF2887D2
:104F60009A87898782E08B8781E08C874F8158857B
:104F700069857A858B859C850E941A270023F9F024
:104F80000E944B1D19832DEF2A839C838B8382E023
:104F90008D831E8249815A816B817C818D819E81A6
:104FA0000E941A272C96E4E00C945D340E944B1D5D
:104FB0001F832CEF28879A87898783E0D4CF0E94AC
:104FC0004B1D19832CEF2A839C838B8383E0E0CFD6
:104FD000A1E0B0E0EEEEF7E20C943C34EE24E39472
:104FE000F12C02E013E09E012F5F3F4F44EF52E0AF
:104FF00064E083E00E94B01AC82E882339F100E0F3
:1050000080E01DC0D0902303D00E2D2D30E0A901EB
:10501000455C5C4F7A01E1E0F0E0EC0FFD1FE00F32
:10502000F11D1081FA019081191BB12E1B149CF007
:10503000912F17FD90E0191B111118C00F5F90916F
:1050400022030917F8F281110E949A0D8C2D2196E6
:10505000E9E00C945834BA94F70180818F5F808323
:1050600060E08D2D0E94A1278C2DE0CF1F5FF701FE
:1050700080818150808361E08D2D0E94A1278C2D3D
:10508000DBCFA6E0B0E0E7E4F8E20C9441348C0119
:105090009093070480930604011580E21807C0F47A
:1050A000802F0E94E012C8010E94840E9801205EA9
:1050B00031092830310518F00115110531F40E942D
:1050C000CB122696E4E00C945D340E94B612F9CF20
:1050D00080EF89838A830E944B1D8160682F9C83A7
:1050E0008B8349815A817C8181E090E00E941A275C
:1050F000E8CF0F931F93CF93DF938C01EB0160E117
:1051000074E08C2F0E946B17892B71F4DD27C85F28
:10511000DB4F8881F801128218828330F1F048F465
:10512000813059F0823081F0DF91CF911F910F9142
:1051300008958430B9F08530B9F7809110049091CA
:105140001104009789F306C0809112049091130412
:10515000009799F30E944128E7CF80911404909121
:105160001504F6CF8091160490911704009791F7DB
:105170002091100430911104809112049091130435
:1051800021153105F1F2009729F7C901E3CFA6E017
:10519000B0E0EDECF8E20C9441348C0190930704FC
:1051A00080930604011580E21807C0F4C8010E942C
:1051B000840E9801205E31092830310518F0011560
:1051C000110549F40E94D612802F0E941B132696C7
:1051D000E4E00C945D340E94C112F6CF80EF898325
:1051E0008A830E944B1D8160682F9C838B83498139
:1051F0005A817C8181E091E00E941A27E8CFCF9309
:10520000DF93EC010E94C728CE010E944128DF9164
:10521000CF9108950F931F93CF93DF938C01862F27
:1052200060E174E00E946B17892BB1F4C091100407
:10523000D0911104209781F0F8018281833051F4DC
:10524000CE010E94FF28CE010E94FF28CE010E94BD
:10525000FF2802C08430D0F7DF91CF911F910F91CA
:1052600008950F931F93CF93DF938C01EB0160E1BF
:1052700074E08C2F0E946B17892B09F05CC0FE0133
:10528000FF27D80112968C911297E85FFB4F81306F
:10529000B9F414969C9192FF02C080830AC090FFDB
:1052A000FCCF82E0808380911204909113040097D8
:1052B000B9F480911004909111040097E1F110C0AD
:1052C0008230B9F514968C9182FD28C080FD0BC008
:1052D00083E080838091140490911504009701F17C
:1052E0000E94C72828C084E0808380911604909192
:1052F00017040097A9F7809110049091110400976A
:10530000F9F00E94FF2880911204909113040097F5
:1053100039F78091100490911104E2CF85E08083E9
:105320008091100490911104009729F00E94FF28A9
:10533000F0CF86E08083DF91CF911F910F91089588
:105340008091120490911304B8CFA6E0B0E0EBEA8C
:10535000F9E20C9441340E944B1D8C018091DC02D7
:105360009091DD028017910781F019821A820E94C4
:105370004B1D682F49815A81792F80E090E00E946F
:105380001A271093DD020093DC022696E4E00C94C9
:105390005D341F921FB61F9211248F939F93AF937A
:1053A000BF938091CB04811113C08091CC04909164
:1053B000CD04A091CE04B091CF044196A11DB11DA2
:1053C0008093CC049093CD04A093CE04B093CF04EB
:1053D000BF91AF919F918F911F901FBE1F90189505
:1053E000CDB7DEB7E1970FB6F894DEBF0FBECDBFE5
:1053F00085B7806885BF85B7806885BF84B7877F9C
:1054000084BF0FB6F894A89580916000886180935E
:105410006000109260000FBE80E890E00FB6F89434
:1054200080936100909361000FBE8FE59BE09093A5
:10543000AF028093AE020E943D0A0E940A080E94B9
:10544000AB088091E20084608093E20078948091C0
:10545000DE048823A1F01091E9001F709091EC0008
:10546000892F817090FD80E8182B1092E9008091BF
:10547000E80083FD0E94AC0F1F701093E90082E0EA
:1054800084BD93E095BD9AEF97BD80936E00109216
:105490001E0310921F0310922003109221030E94FA
:1054A0009E15811102C00E945B178091D800806117
:1054B0008093D8002AE12A95F1F700C08091D900A5
:1054C000182F117080FD04C00E940A081092DE049B
:1054D0001093C30484988C988FE891E00197F1F7BA
:1054E00000C000008FB1829581708093C4048093C6
:1054F0004A018091C30481110E94BD3290914A01FA
:1055000081E0982790933F03A82FA91BA093230322
:1055100090914A018093400390914A018093220325
:1055200080914A01811106C086EF8093560187EF72
:105530008093550120915601E22FE295EF70F0E043
:1055400061A12F7081E090E0AC0101C0440F2A9569
:10555000EAF7342F3095362331A322A1242B22A33E
:1055600020915501E22FE295EF70F0E031A12F700C
:1055700001C0880F2A95EAF7982F9095932391A35D
:1055800092A1892B82A38FE891E00197F1F700C0E7
:1055900000001091400361E473E046E551E085E5C9
:1055A000E82E81E0F82EFB0128C0DA012D91AD0133
:1055B000822F82958F7090E0DC0190968C9190E024
:1055C0002F7002C0959587952A95E2F78170D701D3
:1055D0009D917D01292F22952F7030E0D901909661
:1055E0002C9130E09F7002C0359527959A95E2F78F
:1055F00090E020FD92E0892B81938E2F861B8117EE
:10560000A0F280914A01811120C081E3809346017C
:1056100083E38093470182E38093480186E380938C
:10562000490186E0E8E6F1E0DE01119601900D9275
:105630008A95E1F7FE013196A0E4B1E0CE0107962C
:1056400021912D938E179F07D9F780914A0194E0FD
:10565000811190E090932D0384E0891B80932C03AB
:1056600006E411E08AE4E82E81E0F82EF801819149
:105670008F018F3F11F00E94610BE016F106B1F728
:1056800000E411E0B6E4EB2EB1E0FB2ED8018D91E1
:105690008D018F3F11F00E94610BE016F106B1F70A
:1056A00088E0E8E4F3E0DF01282F1D922A95E9F76E
:1056B000E4E2F3E0DF011D928A95E9F70E94881980
:1056C000811102C00E94891B82E090E00E94CD34CB
:1056D0008093300384E090E00E94D53490932F03B0
:1056E00080932E030E94841FBFEFE6E7F1E0B150E4
:1056F000E040F040E1F700C000000E94841F80916C
:10570000C404E4E08111E0E0F0E0E85BFC4F80815C
:1057100085FF08C06FEF7FEF90E080E00E940935C1
:105720000E94690983E090E00E94CD340E94700ECF
:105730000E94930A0E948819811104C00E94891B4B
:105740000E94741981E080935A0348E050E068E1B8
:1057500070E08BE593E00E94BD3410925A03809173
:105760005B038C7F11F40E94741983E08093B4046E
:1057700080E2809322050E9477316BE070E08BE538
:1057800091E00E949B178823E9F18091B40465E0C1
:1057900070E081FDA6C086E591E00E949B178823FA
:1057A00089F16DE070E084E491E00E949B1788230A
:1057B00049F10E947A09605A75418F4F9F4F60935B
:1057C000B6047093B7048093B8049093B904E5E2EB
:1057D000F5E080E092E0DF019C011D922150304015
:1057E000E1F7F0932C07E0932B078FEF9FEF909357
:1057F00024058093230581E08093BD048093BA043F
:105800001092B5048091C304811102C00E94C0327D
:105810008BE491E09093C8048093C70488E493E0FC
:1058200038E0380F39ABA4E02A2E312C8091DE0409
:10583000F0E4FF2E00E112E1853009F48EC00E94F1
:10584000841FE1E3EE2EE3E0FE2E08E413E0D8012E
:10585000F70191918D9123E0E933F20709F489C0B2
:105860009817B9F35090C30478E4C72E73E0D72E8D
:10587000B12C66246394D601AD906D01F70171904F
:105880007F017A1429F1912C882483947A24872D1E
:105890008821B1F05520A1F09BA6BCA60E944B1D0B
:1058A0009EA78DA76FA691E08A2D882109F490E02C
:1058B00098AB4BA55CA56DA57EA58FA50E941A2768
:1058C0009394880CF6E09F12E2CFF7013197A08203
:1058D000B39428E0B212CFCF0E94780BBB24B394CC
:1058E0004DC081E591E059CF8091DE04843039F1DB
:1058F0000E9413180E94C5171092CB0488E190E013
:105900000FB6F894A895809360000FBEF0926000E7
:1059100083B7817F846083BF83B7816083BF7894BE
:10592000889583B78E7F83BF0FB6F894A895809132
:105930006000886180936000109260000FBE8091CB
:10594000DD04882351F00E94841FE8E4F3E0819194
:105950008111ADC499A99E13FACF8091DE048530E0
:1059600009F4C2CF1092D1040E94980F0E94D0096E
:1059700066CF981377CF0E94A529B12C8091C304DC
:10598000882321F1C090C104D090C204C114D10475
:10599000E9F08091390390913A030E943C1D7C010B
:1059A000C6010E947F178E159F0580F48091C10467
:1059B0003FE0839FC0011124FC01E25EFB4F208188
:1059C00022FD04C0865E9B4F0E9492120E94131813
:1059D000C12CA12C80914003C81650F0AA2009F4D4
:1059E00085C00E949A0D0E94571D0E94E01782C038
:1059F0008C2D90E0FC01EA5AFE4F2081E22FE295C7
:105A0000EF70F0E0E0A1F0E02F7002C0F595E795AF
:105A10002A95E2F7E170DC01AB5ABE4F4C91A42FFE
:105A2000A295AF70B0E090962C9130E04F7002C01C
:105A3000359527954A95E2F720FD50C020E02E2BA2
:105A4000DC01AF5BBC4FEC913E2F3370231709F4A0
:105A500043C0EE0FEE0FE22BEC93D0903F03DC0C33
:105A6000EF70F0E0EF54FE4FDC01A35CBC4F7D0112
:105A700080819C91890F8C93912C84307CF0ED2D4A
:105A8000F0E0E55CFC4F80818F5F80839090C304E1
:105A9000992031F160E08D2D0E94A127F7018081CE
:105AA0008D3F7CF4ED2DF0E0E55CFC4F8081815072
:105AB00080839090C3049920B1F061E08D2D0E9405
:105AC000A127D7018C91082E000C990BB1010E94DF
:105AD0007634F7018083A928C3947CCF22E0AFCF2E
